:020000040000fa
:080000000002040000000000f2
:020000040000fa
:04000800e002000012
:020000040000fa
:04000c00c802000026
:020000040000fa
:04001000ce0200001c
:020000040000fa
:04001400d402000012
:020000040000fa
:04001800da02000008
:020000040000fa
:04001c00e0020000fe
:020000040000fa
:04002000e0020000fa
:020000040000fa
:04002400e0020000f6
:020000040000fa
:04002800e0020000f2
:020000040000fa
:04002c00e0020000ee
:020000040000fa
:04003000e0020000ea
:020000040000fa
:04003400e0020000e6
:020000040000fa
:04003800e0020000e2
:020000040000fa
:04003c00e0020000de
:020000040000fa
:04004000e0020000da
:020000040000fa
:04004400e0020000d6
:020000040000fa
:04004800e0020000d2
:020000040000fa
:04004c00e0020000ce
:020000040000fa
:04005000e0020000ca
:020000040000fa
:04005400e0020000c6
:020000040000fa
:04005800e0020000c2
:020000040000fa
:04005c00e0020000be
:020000040000fa
:04006000e0020000ba
:020000040000fa
:04006400e0020000b6
:020000040000fa
:04006800e0020000b2
:020000040000fa
:04006c00e0020000ae
:020000040000fa
:04007000e0020000aa
:020000040000fa
:04007400e0020000a6
:020000040000fa
:04007800e0020000a2
:020000040000fa
:04007c00e00200009e
:020000040000fa
:04008000e00200009a
:020000040000fa
:04008400e002000096
:020000040000fa
:04008800e002000092
:020000040000fa
:04008c00e00200008e
:020000040000fa
:04009000e00200008a
:020000040000fa
:04009400e002000086
:020000040000fa
:04009800e002000082
:020000040000fa
:04009c00e00200007e
:020000040000fa
:0400a000e00200007a
:020000040000fa
:0400a400e002000076
:020000040000fa
:0400a800e002000072
:020000040000fa
:0400ac00e00200006e
:020000040000fa
:0400b000e00200006a
:020000040000fa
:0400b400e002000066
:020000040000fa
:0400b800e002000062
:020000040000fa
:0400bc00e00200005e
:020000040000fa
:0400c000e00200005a
:020000040000fa
:0400c400e002000056
:020000040000fa
:0400c800e002000052
:020000040000fa
:0400cc00e00200004e
:020000040000fa
:0400d000e00200004a
:020000040000fa
:0400d400e002000046
:020000040000fa
:0400d800e002000042
:020000040000fa
:0400dc00e00200003e
:020000040000fa
:0400e000e00200003a
:020000040000fa
:0400e400e002000036
:020000040000fa
:0400e800e002000032
:020000040000fa
:0400ec00e00200002e
:020000040000fa
:0400f000e00200002a
:020000040000fa
:0400f400e002000026
:020000040000fa
:0400f800e002000022
:020000040000fa
:0400fc00e00200001e
:020000040000fa
:04010000e002000019
:020000040000fa
:04010400e002000015
:020000040000fa
:04010800e002000011
:020000040000fa
:04010c00e00200000d
:020000040000fa
:04011000e002000009
:020000040000fa
:04011400e002000005
:020000040000fa
:04011800e002000001
:020000040000fa
:04011c00e0020000fd
:020000040000fa
:04012000e0020000f9
:020000040000fa
:04012400e0020000f5
:020000040000fa
:04012800e0020000f1
:020000040000fa
:04012c00e0020000ed
:020000040000fa
:04013000e0020000e9
:020000040000fa
:04013400e0020000e5
:020000040000fa
:04013800e0020000e1
:020000040000fa
:04013c00e0020000dd
:020000040000fa
:04014000e0020000d9
:020000040000fa
:04014400e0020000d5
:020000040000fa
:04014800e0020000d1
:020000040000fa
:04014c00e0020000cd
:020000040000fa
:04015000e0020000c9
:020000040000fa
:04015400e0020000c5
:020000040000fa
:04015800e0020000c1
:020000040000fa
:04015c00e0020000bd
:020000040000fa
:04016000e0020000b9
:020000040000fa
:04016400e0020000b5
:020000040000fa
:04016800e0020000b1
:020000040000fa
:04016c00e0020000ad
:020000040000fa
:04017000e0020000a9
:020000040000fa
:04017400e0020000a5
:020000040000fa
:04017800e0020000a1
:020000040000fa
:04017c00e00200009d
:020000040000fa
:04018000e002000099
:020000040000fa
:04018400e002000095
:020000040000fa
:04018800e002000091
:020000040000fa
:04018c00e00200008d
:020000040000fa
:04019000e002000089
:020000040000fa
:04019400e002000085
:020000040000fa
:04019800e002000081
:020000040000fa
:04019c00e00200007d
:020000040000fa
:0401a000e002000079
:020000040000fa
:0401a400e002000075
:020000040000fa
:0401a800e002000071
:020000040000fa
:0401ac00e00200006d
:020000040000fa
:04020800e002000010
:020000040000fa
:04020c00c802000024
:020000040000fa
:04021000ce0200001a
:020000040000fa
:04021400d402000010
:020000040000fa
:04021800da02000006
:020000040000fa
:04021c00e0020000fc
:020000040000fa
:04022000e0020000f8
:020000040000fa
:04022400e0020000f4
:020000040000fa
:04022800e0020000f0
:020000040000fa
:04022c00e0020000ec
:020000040000fa
:04023000e0020000e8
:020000040000fa
:04023400e0020000e4
:020000040000fa
:04023800e0020000e0
:020000040000fa
:04023c00e0020000dc
:020000040000fa
:04024000e0020000d8
:020000040000fa
:04024400e0020000d4
:020000040000fa
:04024800e0020000d0
:020000040000fa
:04024c00e0020000cc
:020000040000fa
:04025000e0020000c8
:020000040000fa
:04025400e0020000c4
:020000040000fa
:04025800e0020000c0
:020000040000fa
:04025c00e0020000bc
:020000040000fa
:04026000e0020000b8
:020000040000fa
:04026400e0020000b4
:020000040000fa
:04026800e0020000b0
:020000040000fa
:04026c00e0020000ac
:020000040000fa
:04027000e0020000a8
:020000040000fa
:04027400e0020000a4
:020000040000fa
:04027800e0020000a0
:020000040000fa
:04027c00e00200009c
:020000040000fa
:04028000e002000098
:020000040000fa
:04028400e002000094
:020000040000fa
:04028800e002000090
:020000040000fa
:04028c00e00200008c
:020000040000fa
:04029000e002000088
:020000040000fa
:04029400e002000084
:020000040000fa
:04029800e002000080
:020000040000fa
:04029c00e00200007c
:020000040000fa
:0402a000e002000078
:020000040000fa
:0402a400e002000074
:020000040000fa
:0402a800e002000070
:020000040000fa
:0402ac00e00200006c
:020000040000fa
:0402b000e002000068
:020000040000fa
:0402b400e002000064
:020000040000fa
:0402b800e002000060
:020000040000fa
:0402bc00e00200005c
:020000040000fa
:0402c000e002000058
:020000040000fa
:0402c400e002000054
:020000040000fa
:0402c800e002000050
:020000040000fa
:0402cc00e00200004c
:020000040000fa
:0402d000e002000048
:020000040000fa
:0402d400e002000044
:020000040000fa
:0402d800e002000040
:020000040000fa
:0402dc00e00200003c
:020000040000fa
:0402e000e002000038
:020000040000fa
:0402e400e002000034
:020000040000fa
:0402e800e002000030
:020000040000fa
:0402ec00e00200002c
:020000040000fa
:0402f000e002000028
:020000040000fa
:0402f400e002000024
:020000040000fa
:0402f800e002000020
:020000040000fa
:0402fc00e00200001c
:020000040000fa
:04030000e002000017
:020000040000fa
:04030400e002000013
:020000040000fa
:04030800e00200000f
:020000040000fa
:04030c00e00200000b
:020000040000fa
:04031000e002000007
:020000040000fa
:04031400e002000003
:020000040000fa
:04031800e0020000ff
:020000040000fa
:04031c00e0020000fb
:020000040000fa
:04032000e0020000f7
:020000040000fa
:04032400e0020000f3
:020000040000fa
:04032800e0020000ef
:020000040000fa
:04032c00e0020000eb
:020000040000fa
:04033000e0020000e7
:020000040000fa
:04033400e0020000e3
:020000040000fa
:04033800e0020000df
:020000040000fa
:04033c00e0020000db
:020000040000fa
:04034000e0020000d7
:020000040000fa
:04034400e0020000d3
:020000040000fa
:04034800e0020000cf
:020000040000fa
:04034c00e0020000cb
:020000040000fa
:04035000e0020000c7
:020000040000fa
:04035400e0020000c3
:020000040000fa
:04035800e0020000bf
:020000040000fa
:04035c00e0020000bb
:020000040000fa
:04036000e0020000b7
:020000040000fa
:04036400e0020000b3
:020000040000fa
:04036800e0020000af
:020000040000fa
:04036c00e0020000ab
:020000040000fa
:04037000e0020000a7
:020000040000fa
:04037400e0020000a3
:020000040000fa
:04037800e00200009f
:020000040000fa
:04037c00e00200009b
:020000040000fa
:04038000e002000097
:020000040000fa
:04038400e002000093
:020000040000fa
:04038800e00200008f
:020000040000fa
:04038c00e00200008b
:020000040000fa
:04039000e002000087
:020000040000fa
:04039400e002000083
:020000040000fa
:04039800e00200007f
:020000040000fa
:04039c00e00200007b
:020000040000fa
:0403a000e002000077
:020000040000fa
:0403a400e002000073
:020000040000fa
:0403a800e00200006f
:020000040000fa
:0403ac00e00200006b
:020000040000fa
:100400000f8020000eff20000e0188000000000079
:10041000000020000000e000020032000001200087
:100420002002880014000700670007000000e000b9
:1004300003003a0000002000010020000200370005
:100440000000200001002000810f70000100320038
:1004500014000700000020000000e000020032004d
:100460000000020000000000f20502000000000091
:100470000040da000000fe004440a9000000200017
:100480000000e0000300320000002000a00188000e
:100490004440a800000006008a1f78008b1f7800e7
:1004a0000000060091018800800478000000eb0045
:1004b0001a003700e284440032a0b4009905ba0063
:1004c000e284440032a0b4009906ba00e2844400f9
:1004d00032a0b4000006eb00476fde00fd07b2005b
:1004e000636ce10003003a00ebff07000000eb0043
:1004f0000a003700606ce10004003a00005deb0088
:100500008b05e900fdff3e00040037006168e10053
:10051000010032000086eb000b00070019c7ba008b
:100520001905ba000e04e00003003a000a00e000da
:10053000e0ff3a0000000600fe07b2009e018800be
:100540008a047800f5ff3700395dba008b05e900b1
:100550000c003200295dba008b05e900080032006a
:100560000c00e00003003a00e284440032a0b40032
:10057000f5ff370019ddba008b05e900faff3a00f4
:100580008904e800e184440032a0b40000000600c1
:100590000000fa008020a900ffff37000000fa00e9
:1005a0008060a900ffff37000000fa008040a9002a
:1005b000ffff37000000fa008080a900ffff37002e
:0c05c0000000fa00ffff370000000500fb
:020000040000fa
:1005cc000000fa000080fa00000006000000fa00ab
:1005dc00c8e2a900e2e4a9004081a900010a800058
:1005ec0000ff2f00008060005000b300000a88005c
:1005fc0040a1a9004161a900010a8000f08f2f00e1
:10060c0000806000000a8800010a8000f0f32f00cf
:10061c0000806000000a880042e1a900110a8000f5
:10062c0000fe2f0000806000100a88004701a8001f
:10063c00510a8000f08f2f0000806000500a880063
:10064c004aa1a9005021ef0030062000a00a880022
:10065c005821ef0020032000e00a880041e1a800a7
:10066c000080fa00000006000200fa00000f78007b
:10067c001e007800e90f500002003e000000eb0065
:10068c00000f7800f03f20009e007800808f500013
:10069c0002003600f03f2000000f78001e007800aa
:1006ac004200de00a00a88000080fa00000006006c
:1006bc000000fa0080022000101088000422ef00d5
:1006cc000622ef000822ef0070072000501088006f
:1006dc00c902a800c922a8000080fa000000060088
:1006ec000000fa0000000000401080006400600070
:1006fc000000e000fcff3a00201080007f0060004a
:10070c000000e000f8ff3a000080fa00000006004c
:10071c000000fa00f2ff07000402a8000080fa00b3
:10072c00000006000200fa00004f7800ecff070002
:10073c000402a8001e407800200007000080fa0088
:10074c00000006000000fa00e5ff07000422a800e4
:10075c000080fa00000006000000fa00e0ff07002d
:10076c000442a8000080fa00000006000000fa0015
:10077c0004a2a9000482a800000000002010800040
:10078c00700060000000e000fcff3a000080fa00fe
:10079c00000006000000fa0004a2a8000482a800d1
:1007ac000000000020108000700060000000e000dd
:1007bc00fcff3a000080fa00000006000200fa007c
:1007cc00004f7800c6ff07001e80fb000010880059
:1007dc000000000030048000610060000000e000b8
:1007ec00fcff32008600a900201080004600de00cd
:1007fc00614060000080fa00000006000000fa0072
:10080c00b7ff07000462a80000000000300480005d
:10081c00610060000000e000fcff32008600a900cf
:10082c00afff070000108000004078000080fa0045
:10083c00000006000400fa00204798000462a8009b
:10084c000000000040108000610060000000e0002b
:10085c00fcff320000108000004f78002e4090000a
:10086c000004e00002003a00c0ff0700020037005d
:10087c00c8ff070000000000300480006100600029
:10088c000000e000fcff32008600a9001e4078004a
:10089c000080fa00000006000000fa000090200022
:1008ac00d1032000f500070000cdb3009dff070029
:1008bc0090c1b300c1ff070070c0b300bfff0700b9
:1008cc00a5ff070000cdb30096ff0700b0c6b3002c
:1008dc00baff070010c0b300b8ff07009eff070067
:1008ec0000cdb3008fff0700a0c1b300b3ff07001a
:1008fc0040c0b300b1ff070097ff070000cdb30065
:10090c0088ff0700c0c1b300acff07000040eb003c
:10091c00aaff070090ff070000cdb30081ff07007e
:10092c00b0c1b300a5ff070080c1b300a3ff07004f
:10093c0089ff070000cdb3007aff070080c3b30026
:10094c009eff070010c0b3009cff070082ff07004a
:10095c000080fa00000006001000fa00881f7800e2
:10096c0000cdb3006fff0700b0c3b30093ff0700c7
:10097c0079ff070010cdb3006aff07000040eb00c1
:10098c00acff07000040eb00aaff07000080fb0053
:10099c004804dd000040eb00a6ff07000080fb00d0
:1009ac00000f74000040eb00a2ff07000080fb006a
:1009bc004804dd000040eb009eff07000080fb00b8
:1009cc0008007000100798000040eb0099ff07002a
:1009dc000080fb004804dd000040eb0095ff0700a1
:1009ec000080fb0008007000200798000040eb001e
:1009fc0090ff07000080fb004804dd000040eb0086
:100a0c008cff07000080fb00080070003007980086
:100a1c000040eb0087ff07000080fb004804dd006e
:100a2c000040eb0083ff07000080fb000800700013
:100a3c00400798000040eb007eff07000080fb00a1
:100a4c004804dd000040eb007aff07000080fb004b
:100a5c0008007000500798000040eb0075ff07007d
:100a6c000080fb004804dd0010c0b30071ff0700dc
:100a7c000080fb00080070006007980036ff07003c
:100a8c009e00900000012400008040007007980038
:100a9c007e0090004500de00f3fe07004f04780056
:100aac000080fa00000006000000fa00e01a2100a5
:100abc00103a8800c0ff2f0000278800c022ef00ea
:100acc00c422ef00e224ef0040302d0040168800d5
:100adc00003020006016880000302000701688005e
:100aec000080fa00000006000000fa0008e2a800ee
:100afc0008c2a8000802a90004e2a90004c2a900c7
:100b0c0004a2a9000482a9000462a9000442a9005d
:100b1c000422a9000402a90006e2a90006c2a90049
:100b2c0006a2a8000682a9000662a8000642a90037
:100b3c000622a9000602a9000c22ef00d00020001a
:100b4c005010880002e2a90002c2a9000282a9008a
:100b5c001110800000ff2f00008060000030a0000a
:100b6c001010880002a2a8000080fa000000060005
:100b7c000000fa000822ef0002a2a8001110800069
:100b8c0000ff2f00008060000030a00010108800d3
:100b9c000622ef0090002000501088000080fa0020
:100bac00000006000400fa00004f7800114798007e
:100bbc00224798000402a8000000000020108000ca
:100bcc00610060000000e000fcff3a000442a80055
:100bdc000080fa00000006000000fa003500070053
:100bec0077fe0700b0ff0700bfff0700e004a90075
:100bfc00c002a900c402a80074fe070060168000a1
:100c0c004300de006140600000c0ea00614060000b
:100c1c000080fb00610060004300dd006116800075
:100c2c000130a10001007000601688000402a800c9
:100c3c000000000020108000610060000000e00057
:100c4c00fcff3a00a00a2000001088000000000001
:100c5c0040108000640060000000e000fcff3a00df
:100c6c000442a80000000000201080006400600016
:0c0c7c000000e000fcff3a00e0ff370041
:020000040000fa
:100c8800f03fb1000180b10006003500ee03090015
:100c980000000000403fb1000180b100fbff3d00b3
:100ca8001000b000203fb0000200350000800900ad
:080cb80000000000000006002e
:020000040000fa
:0c0cc0000000fa000080fa0000000600ae
:020000040000fa
:0200000401f009
:04000000ffffff00ff
:020000040000fa
:0200000401f009
:04000800ffffff00f7
:020000040000fa
:0200000401f009
:04000c0059ff000098
:020000040000fa
:0200000401f009
:04001000bbff000032
:020000040000fa
:0200000401f009
:040014001fff0000ca
:020000040000fa
:0200000401f009
:0400180090ff000055
:020000040000fa
:0200000401f009
:04001c00ffff0000e2
:00000001FF
